{
  "contractName": "ticketingSystem",
  "abi": [
    {
      "inputs": [],
      "payable": false,
      "stateMutability": "nonpayable",
      "type": "constructor"
    },
    {
      "constant": true,
      "inputs": [
        {
          "internalType": "uint256",
          "name": "",
          "type": "uint256"
        }
      ],
      "name": "artistsRegister",
      "outputs": [
        {
          "internalType": "bytes32",
          "name": "name",
          "type": "bytes32"
        },
        {
          "internalType": "uint256",
          "name": "artistCategory",
          "type": "uint256"
        },
        {
          "internalType": "address payable",
          "name": "owner",
          "type": "address"
        },
        {
          "internalType": "uint256",
          "name": "totalTicketSold",
          "type": "uint256"
        }
      ],
      "payable": false,
      "stateMutability": "view",
      "type": "function"
    },
    {
      "constant": true,
      "inputs": [
        {
          "internalType": "uint256",
          "name": "",
          "type": "uint256"
        }
      ],
      "name": "concertsRegister",
      "outputs": [
        {
          "internalType": "uint256",
          "name": "artistId",
          "type": "uint256"
        },
        {
          "internalType": "uint256",
          "name": "concertDate",
          "type": "uint256"
        },
        {
          "internalType": "uint256",
          "name": "venueId",
          "type": "uint256"
        },
        {
          "internalType": "bool",
          "name": "validatedByArtist",
          "type": "bool"
        },
        {
          "internalType": "bool",
          "name": "validatedByVenue",
          "type": "bool"
        },
        {
          "internalType": "uint256",
          "name": "totalSoldTicket",
          "type": "uint256"
        },
        {
          "internalType": "uint256",
          "name": "totalMoneyCollected",
          "type": "uint256"
        },
        {
          "internalType": "uint256",
          "name": "ticketPrice",
          "type": "uint256"
        }
      ],
      "payable": false,
      "stateMutability": "view",
      "type": "function"
    },
    {
      "constant": true,
      "inputs": [],
      "name": "nextIdArtist",
      "outputs": [
        {
          "internalType": "uint256",
          "name": "",
          "type": "uint256"
        }
      ],
      "payable": false,
      "stateMutability": "view",
      "type": "function"
    },
    {
      "constant": true,
      "inputs": [],
      "name": "nextIdConcert",
      "outputs": [
        {
          "internalType": "uint256",
          "name": "",
          "type": "uint256"
        }
      ],
      "payable": false,
      "stateMutability": "view",
      "type": "function"
    },
    {
      "constant": true,
      "inputs": [],
      "name": "nextIdTicket",
      "outputs": [
        {
          "internalType": "uint256",
          "name": "",
          "type": "uint256"
        }
      ],
      "payable": false,
      "stateMutability": "view",
      "type": "function"
    },
    {
      "constant": true,
      "inputs": [],
      "name": "nextIdVenue",
      "outputs": [
        {
          "internalType": "uint256",
          "name": "",
          "type": "uint256"
        }
      ],
      "payable": false,
      "stateMutability": "view",
      "type": "function"
    },
    {
      "constant": true,
      "inputs": [
        {
          "internalType": "uint256",
          "name": "",
          "type": "uint256"
        }
      ],
      "name": "ticketsRegister",
      "outputs": [
        {
          "internalType": "uint256",
          "name": "concertId",
          "type": "uint256"
        },
        {
          "internalType": "uint256",
          "name": "amountPaid",
          "type": "uint256"
        },
        {
          "internalType": "bool",
          "name": "isAvailable",
          "type": "bool"
        },
        {
          "internalType": "address payable",
          "name": "owner",
          "type": "address"
        },
        {
          "internalType": "bool",
          "name": "isAvailableForSale",
          "type": "bool"
        },
        {
          "internalType": "uint256",
          "name": "numTicket",
          "type": "uint256"
        },
        {
          "internalType": "uint256",
          "name": "salePrice",
          "type": "uint256"
        }
      ],
      "payable": false,
      "stateMutability": "view",
      "type": "function"
    },
    {
      "constant": true,
      "inputs": [
        {
          "internalType": "uint256",
          "name": "",
          "type": "uint256"
        }
      ],
      "name": "venuesRegister",
      "outputs": [
        {
          "internalType": "bytes32",
          "name": "name",
          "type": "bytes32"
        },
        {
          "internalType": "uint256",
          "name": "capacity",
          "type": "uint256"
        },
        {
          "internalType": "uint256",
          "name": "standardComission",
          "type": "uint256"
        },
        {
          "internalType": "address payable",
          "name": "owner",
          "type": "address"
        }
      ],
      "payable": false,
      "stateMutability": "view",
      "type": "function"
    },
    {
      "constant": false,
      "inputs": [
        {
          "internalType": "bytes32",
          "name": "_name",
          "type": "bytes32"
        },
        {
          "internalType": "uint256",
          "name": "_artistCategory",
          "type": "uint256"
        }
      ],
      "name": "createArtist",
      "outputs": [
        {
          "internalType": "uint256",
          "name": "numArtist",
          "type": "uint256"
        }
      ],
      "payable": false,
      "stateMutability": "nonpayable",
      "type": "function"
    },
    {
      "constant": false,
      "inputs": [
        {
          "internalType": "bytes32",
          "name": "_name",
          "type": "bytes32"
        },
        {
          "internalType": "uint256",
          "name": "_capacity",
          "type": "uint256"
        },
        {
          "internalType": "uint256",
          "name": "_standardComission",
          "type": "uint256"
        }
      ],
      "name": "createVenue",
      "outputs": [
        {
          "internalType": "uint256",
          "name": "numVenue",
          "type": "uint256"
        }
      ],
      "payable": false,
      "stateMutability": "nonpayable",
      "type": "function"
    },
    {
      "constant": false,
      "inputs": [
        {
          "internalType": "uint256",
          "name": "_artistId",
          "type": "uint256"
        },
        {
          "internalType": "uint256",
          "name": "_venueId",
          "type": "uint256"
        },
        {
          "internalType": "uint256",
          "name": "_concertDate",
          "type": "uint256"
        },
        {
          "internalType": "uint256",
          "name": "_ticketPrice",
          "type": "uint256"
        }
      ],
      "name": "createConcert",
      "outputs": [
        {
          "internalType": "uint256",
          "name": "numConcert",
          "type": "uint256"
        }
      ],
      "payable": false,
      "stateMutability": "nonpayable",
      "type": "function"
    },
    {
      "constant": false,
      "inputs": [
        {
          "internalType": "uint256",
          "name": "_concertId",
          "type": "uint256"
        },
        {
          "internalType": "address payable",
          "name": "_ticketOwner",
          "type": "address"
        }
      ],
      "name": "emitTicket",
      "outputs": [
        {
          "internalType": "uint256",
          "name": "numTicket",
          "type": "uint256"
        }
      ],
      "payable": false,
      "stateMutability": "nonpayable",
      "type": "function"
    },
    {
      "constant": false,
      "inputs": [
        {
          "internalType": "uint256",
          "name": "_artistId",
          "type": "uint256"
        },
        {
          "internalType": "bytes32",
          "name": "_name",
          "type": "bytes32"
        },
        {
          "internalType": "uint256",
          "name": "_artistCategory",
          "type": "uint256"
        },
        {
          "internalType": "address payable",
          "name": "_newOwner",
          "type": "address"
        }
      ],
      "name": "modifyArtist",
      "outputs": [],
      "payable": false,
      "stateMutability": "nonpayable",
      "type": "function"
    },
    {
      "constant": false,
      "inputs": [
        {
          "internalType": "uint256",
          "name": "_venueId",
          "type": "uint256"
        },
        {
          "internalType": "bytes32",
          "name": "_name",
          "type": "bytes32"
        },
        {
          "internalType": "uint256",
          "name": "_capacity",
          "type": "uint256"
        },
        {
          "internalType": "uint256",
          "name": "_standardComission",
          "type": "uint256"
        },
        {
          "internalType": "address payable",
          "name": "_newOwner",
          "type": "address"
        }
      ],
      "name": "modifyVenue",
      "outputs": [],
      "payable": false,
      "stateMutability": "nonpayable",
      "type": "function"
    },
    {
      "constant": false,
      "inputs": [
        {
          "internalType": "uint256",
          "name": "_concertId",
          "type": "uint256"
        }
      ],
      "name": "validateConcert",
      "outputs": [],
      "payable": false,
      "stateMutability": "nonpayable",
      "type": "function"
    },
    {
      "constant": false,
      "inputs": [
        {
          "internalType": "uint256",
          "name": "_ticketId",
          "type": "uint256"
        }
      ],
      "name": "useTicket",
      "outputs": [],
      "payable": false,
      "stateMutability": "nonpayable",
      "type": "function"
    },
    {
      "constant": false,
      "inputs": [
        {
          "internalType": "uint256",
          "name": "_concertId",
          "type": "uint256"
        }
      ],
      "name": "buyTicket",
      "outputs": [
        {
          "internalType": "uint256",
          "name": "numTicket",
          "type": "uint256"
        }
      ],
      "payable": true,
      "stateMutability": "payable",
      "type": "function"
    },
    {
      "constant": false,
      "inputs": [
        {
          "internalType": "uint256",
          "name": "_ticketId",
          "type": "uint256"
        },
        {
          "internalType": "address payable",
          "name": "_newOwner",
          "type": "address"
        }
      ],
      "name": "transferTicket",
      "outputs": [],
      "payable": false,
      "stateMutability": "nonpayable",
      "type": "function"
    },
    {
      "constant": false,
      "inputs": [
        {
          "internalType": "uint256",
          "name": "_concertId",
          "type": "uint256"
        },
        {
          "internalType": "address payable",
          "name": "_addressForCashOut",
          "type": "address"
        }
      ],
      "name": "cashOutConcert",
      "outputs": [],
      "payable": false,
      "stateMutability": "nonpayable",
      "type": "function"
    },
    {
      "constant": false,
      "inputs": [
        {
          "internalType": "uint256",
          "name": "_ticketId",
          "type": "uint256"
        },
        {
          "internalType": "uint256",
          "name": "_salePrice",
          "type": "uint256"
        }
      ],
      "name": "offerTicketForSale",
      "outputs": [],
      "payable": false,
      "stateMutability": "nonpayable",
      "type": "function"
    },
    {
      "constant": false,
      "inputs": [
        {
          "internalType": "uint256",
          "name": "_ticketId",
          "type": "uint256"
        }
      ],
      "name": "buySecondHandTicket",
      "outputs": [],
      "payable": true,
      "stateMutability": "payable",
      "type": "function"
    }
  ],
  "bytecode": "0x608060405234801561001057600080fd5b506001600481905550600160058190555060016006819055506001600781905550611e1f806100406000396000f3fe60806040526004361061012a5760003560e01c806388d65846116100ab578063cd2255a21161006f578063cd2255a214610692578063d6ecc2b1146106bd578063d800f2ad14610718578063e03536f314610743578063e62e4f8d146107b0578063f02eafd1146108095761012a565b806388d658461461044f57806390b3b014146104c857806392fc3b081461053757806397af293014610572578063a88ae815146106025761012a565b806359cb327a116100f257806359cb327a146102745780635dfe9291146102d7578063640c490914610384578063679ebf1a146103b257806367dd74ca1461040d5761012a565b8063034c55db1461012f578063176067371461015a5780631da0ecef1461019f57806326606448146101ca578063486ff9ae14610205575b600080fd5b34801561013b57600080fd5b50610144610891565b6040518082815260200191505060405180910390f35b34801561016657600080fd5b5061019d6004803603604081101561017d57600080fd5b810190808035906020019092919080359060200190929190505050610897565b005b3480156101ab57600080fd5b506101b46109f0565b6040518082815260200191505060405180910390f35b3480156101d657600080fd5b50610203600480360360208110156101ed57600080fd5b81019080803590602001909291905050506109f6565b005b34801561021157600080fd5b5061025e6004803603604081101561022857600080fd5b8101908080359060200190929190803573ffffffffffffffffffffffffffffffffffffffff169060200190929190505050610be7565b6040518082815260200191505060405180910390f35b34801561028057600080fd5b506102c16004803603606081101561029757600080fd5b81019080803590602001909291908035906020019092919080359060200190929190505050610df7565b6040518082815260200191505060405180910390f35b3480156102e357600080fd5b50610310600480360360208110156102fa57600080fd5b8101908080359060200190929190505050610ed4565b60405180888152602001878152602001861515151581526020018573ffffffffffffffffffffffffffffffffffffffff1673ffffffffffffffffffffffffffffffffffffffff1681526020018415151515815260200183815260200182815260200197505050505050505060405180910390f35b6103b06004803603602081101561039a57600080fd5b8101908080359060200190929190505050610f50565b005b3480156103be57600080fd5b5061040b600480360360408110156103d557600080fd5b8101908080359060200190929190803573ffffffffffffffffffffffffffffffffffffffff1690602001909291905050506110db565b005b6104396004803603602081101561042357600080fd5b81019080803590602001909291905050506111da565b6040518082815260200191505060405180910390f35b34801561045b57600080fd5b506104c6600480360360a081101561047257600080fd5b8101908080359060200190929190803590602001909291908035906020019092919080359060200190929190803573ffffffffffffffffffffffffffffffffffffffff1690602001909291905050506113e9565b005b3480156104d457600080fd5b50610535600480360360808110156104eb57600080fd5b81019080803590602001909291908035906020019092919080359060200190929190803573ffffffffffffffffffffffffffffffffffffffff169060200190929190505050611514565b005b34801561054357600080fd5b506105706004803603602081101561055a57600080fd5b810190808035906020019092919050505061161f565b005b34801561057e57600080fd5b506105ab6004803603602081101561059557600080fd5b81019080803590602001909291905050506117a4565b604051808581526020018481526020018373ffffffffffffffffffffffffffffffffffffffff1673ffffffffffffffffffffffffffffffffffffffff16815260200182815260200194505050505060405180910390f35b34801561060e57600080fd5b5061063b6004803603602081101561062557600080fd5b81019080803590602001909291905050506117f4565b604051808581526020018481526020018381526020018273ffffffffffffffffffffffffffffffffffffffff1673ffffffffffffffffffffffffffffffffffffffff16815260200194505050505060405180910390f35b34801561069e57600080fd5b506106a7611844565b6040518082815260200191505060405180910390f35b3480156106c957600080fd5b50610716600480360360408110156106e057600080fd5b8101908080359060200190929190803573ffffffffffffffffffffffffffffffffffffffff16906020019092919050505061184a565b005b34801561072457600080fd5b5061072d611b3c565b6040518082815260200191505060405180910390f35b34801561074f57600080fd5b5061079a6004803603608081101561076657600080fd5b8101908080359060200190929190803590602001909291908035906020019092919080359060200190929190505050611b42565b6040518082815260200191505060405180910390f35b3480156107bc57600080fd5b506107f3600480360360408110156107d357600080fd5b810190808035906020019092919080359060200190929190505050611ccc565b6040518082815260200191505060405180910390f35b34801561081557600080fd5b506108426004803603602081101561082c57600080fd5b8101908080359060200190929190505050611d88565b6040518089815260200188815260200187815260200186151515158152602001851515151581526020018481526020018381526020018281526020019850505050505050505060405180910390f35b60075481565b3373ffffffffffffffffffffffffffffffffffffffff166003600084815260200190815260200160002060020160019054906101000a900473ffffffffffffffffffffffffffffffffffffffff1673ffffffffffffffffffffffffffffffffffffffff161461090557600080fd5b426002600060036000868152602001908152602001600020600001548152602001908152602001600020600101541161093d57600080fd5b6003600083815260200190815260200160002060020160009054906101000a900460ff1661096a57600080fd5b80600260006003600086815260200190815260200160002060000154815260200190815260200160002060060154116109a257600080fd5b80600360008481526020019081526020016000206004018190555060016003600084815260200190815260200160002060020160156101000a81548160ff0219169083151502179055505050565b60045481565b3373ffffffffffffffffffffffffffffffffffffffff166003600083815260200190815260200160002060020160019054906101000a900473ffffffffffffffffffffffffffffffffffffffff1673ffffffffffffffffffffffffffffffffffffffff1614610a6457600080fd5b4260026000600360008581526020019081526020016000206000015481526020019081526020016000206001015411610a9c57600080fd5b62015180420160026000600360008581526020019081526020016000206000015481526020019081526020016000206001015410610ad957600080fd5b600260006003600084815260200190815260200160002060000154815260200190815260200160002060030160009054906101000a900460ff16610b1c57600080fd5b600260006003600084815260200190815260200160002060000154815260200190815260200160002060030160019054906101000a900460ff16610b5f57600080fd5b6003600082815260200190815260200160002060008082016000905560018201600090556002820160006101000a81549060ff02191690556002820160016101000a81549073ffffffffffffffffffffffffffffffffffffffff02191690556002820160156101000a81549060ff021916905560038201600090556004820160009055505050565b60003373ffffffffffffffffffffffffffffffffffffffff166000806002600087815260200190815260200160002060000154815260200190815260200160002060020160009054906101000a900473ffffffffffffffffffffffffffffffffffffffff1673ffffffffffffffffffffffffffffffffffffffff1614610c6c57600080fd5b60026000848152602001908152602001600020600401546001600060026000878152602001908152602001600020600201548152602001908152602001600020600101541015610cbb57600080fd5b4260026000858152602001908152602001600020600101541015610cde57600080fd5b82600360006007548152602001908152602001600020600001819055508160036000600754815260200190815260200160002060020160016101000a81548173ffffffffffffffffffffffffffffffffffffffff021916908373ffffffffffffffffffffffffffffffffffffffff16021790555060016002600085815260200190815260200160002060040160008282540192505081905550600260008481526020019081526020016000206004015460036000600754815260200190815260200160002060030181905550600160036000600754815260200190815260200160002060020160006101000a81548160ff0219169083151502179055506007549050600160076000828254019250508190555092915050565b60008060001b841415610e0957600080fd5b8360016000600554815260200190815260200160002060000181905550826001600060055481526020019081526020016000206001018190555081600160006005548152602001908152602001600020600201819055503360016000600554815260200190815260200160002060030160006101000a81548173ffffffffffffffffffffffffffffffffffffffff021916908373ffffffffffffffffffffffffffffffffffffffff160217905550600554905060016005600082825401925050819055509392505050565b60036020528060005260406000206000915090508060000154908060010154908060020160009054906101000a900460ff16908060020160019054906101000a900473ffffffffffffffffffffffffffffffffffffffff16908060020160159054906101000a900460ff16908060030154908060040154905087565b4260026000600360008581526020019081526020016000206000015481526020019081526020016000206001015411610f8857600080fd5b6003600082815260200190815260200160002060020160159054906101000a900460ff16610fb557600080fd5b34600360008381526020019081526020016000206004015414610fd757600080fd5b60006003600083815260200190815260200160002060020160156101000a81548160ff0219169083151502179055506003600082815260200190815260200160002060020160019054906101000a900473ffffffffffffffffffffffffffffffffffffffff1673ffffffffffffffffffffffffffffffffffffffff166108fc349081150290604051600060405180830381858888f19350505050158015611082573d6000803e3d6000fd5b50336003600083815260200190815260200160002060020160016101000a81548173ffffffffffffffffffffffffffffffffffffffff021916908373ffffffffffffffffffffffffffffffffffffffff16021790555050565b3373ffffffffffffffffffffffffffffffffffffffff166003600084815260200190815260200160002060020160019054906101000a900473ffffffffffffffffffffffffffffffffffffffff1673ffffffffffffffffffffffffffffffffffffffff161461114957600080fd5b426002600060036000868152602001908152602001600020600001548152602001908152602001600020600101541161118157600080fd5b806003600084815260200190815260200160002060020160016101000a81548173ffffffffffffffffffffffffffffffffffffffff021916908373ffffffffffffffffffffffffffffffffffffffff1602179055505050565b600080600260008481526020019081526020016000206000015414156111ff57600080fd5b6002600083815260200190815260200160002060040154600160006002600086815260200190815260200160002060020154815260200190815260200160002060010154101561124e57600080fd5b4260026000848152602001908152602001600020600101541161127057600080fd5b3460026000848152602001908152602001600020600601541461129257600080fd5b81600360006007548152602001908152602001600020600001819055503360036000600754815260200190815260200160002060020160016101000a81548173ffffffffffffffffffffffffffffffffffffffff021916908373ffffffffffffffffffffffffffffffffffffffff16021790555060016002600084815260200190815260200160002060040160008282540192505081905550600260008381526020019081526020016000206004015460036000600754815260200190815260200160002060030181905550600160036000600754815260200190815260200160002060020160006101000a81548160ff02191690831515021790555034600260008481526020019081526020016000206005016000828254019250508190555034600360008481526020019081526020016000206001018190555060075490506001600760008282540192505081905550919050565b6000801b8414156113f957600080fd5b3373ffffffffffffffffffffffffffffffffffffffff166001600087815260200190815260200160002060030160009054906101000a900473ffffffffffffffffffffffffffffffffffffffff1673ffffffffffffffffffffffffffffffffffffffff161461146757600080fd5b836001600087815260200190815260200160002060000181905550826001600087815260200190815260200160002060010181905550816001600087815260200190815260200160002060020181905550806001600087815260200190815260200160002060030160006101000a81548173ffffffffffffffffffffffffffffffffffffffff021916908373ffffffffffffffffffffffffffffffffffffffff1602179055505050505050565b6000801b83141561152457600080fd5b3373ffffffffffffffffffffffffffffffffffffffff1660008086815260200190815260200160002060020160009054906101000a900473ffffffffffffffffffffffffffffffffffffffff1673ffffffffffffffffffffffffffffffffffffffff161461159157600080fd5b826000808681526020019081526020016000206000018190555081600080868152602001908152602001600020600101819055508060008086815260200190815260200160002060020160006101000a81548173ffffffffffffffffffffffffffffffffffffffff021916908373ffffffffffffffffffffffffffffffffffffffff16021790555050505050565b426002600083815260200190815260200160002060010154101561164257600080fd5b3373ffffffffffffffffffffffffffffffffffffffff166000806002600085815260200190815260200160002060000154815260200190815260200160002060020160009054906101000a900473ffffffffffffffffffffffffffffffffffffffff1673ffffffffffffffffffffffffffffffffffffffff1614156116f15760016002600083815260200190815260200160002060030160006101000a81548160ff0219169083151502179055505b3373ffffffffffffffffffffffffffffffffffffffff16600160006002600085815260200190815260200160002060020154815260200190815260200160002060030160009054906101000a900473ffffffffffffffffffffffffffffffffffffffff1673ffffffffffffffffffffffffffffffffffffffff1614156117a15760016002600083815260200190815260200160002060030160016101000a81548160ff0219169083151502179055505b50565b60006020528060005260406000206000915090508060000154908060010154908060020160009054906101000a900473ffffffffffffffffffffffffffffffffffffffff16908060030154905084565b60016020528060005260406000206000915090508060000154908060010154908060020154908060030160009054906101000a900473ffffffffffffffffffffffffffffffffffffffff16905084565b60055481565b4260026000848152602001908152602001600020600101541061186c57600080fd5b3373ffffffffffffffffffffffffffffffffffffffff166000806002600086815260200190815260200160002060000154815260200190815260200160002060020160009054906101000a900473ffffffffffffffffffffffffffffffffffffffff1673ffffffffffffffffffffffffffffffffffffffff16146118ef57600080fd5b600060026000848152602001908152602001600020600501541161191257600080fd5b60006127106001600060026000878152602001908152602001600020600201548152602001908152602001600020600201546002600086815260200190815260200160002060050154028161196357fe5b0490506000816002600086815260200190815260200160002060050154039050600060026000868152602001908152602001600020600501819055508273ffffffffffffffffffffffffffffffffffffffff166108fc829081150290604051600060405180830381858888f193505050501580156119e5573d6000803e3d6000fd5b50600160006002600087815260200190815260200160002060020154815260200190815260200160002060030160009054906101000a900473ffffffffffffffffffffffffffffffffffffffff1673ffffffffffffffffffffffffffffffffffffffff166108fc839081150290604051600060405180830381858888f19350505050158015611a78573d6000803e3d6000fd5b506002600085815260200190815260200160002060040154600080600260008881526020019081526020016000206000015481526020019081526020016000206003016000828254019250508190555060026000858152602001908152602001600020600080820160009055600182016000905560028201600090556003820160006101000a81549060ff02191690556003820160016101000a81549060ff0219169055600482016000905560058201600090556006820160009055505050505050565b60065481565b60008073ffffffffffffffffffffffffffffffffffffffff1660008087815260200190815260200160002060020160009054906101000a900473ffffffffffffffffffffffffffffffffffffffff1673ffffffffffffffffffffffffffffffffffffffff161415611bb257600080fd5b600073ffffffffffffffffffffffffffffffffffffffff166001600086815260200190815260200160002060030160009054906101000a900473ffffffffffffffffffffffffffffffffffffffff1673ffffffffffffffffffffffffffffffffffffffff161415611c2257600080fd5b42831015611c2f57600080fd5b8460026000600654815260200190815260200160002060000181905550836002600060065481526020019081526020016000206002018190555082600260006006548152602001908152602001600020600101819055508160026000600654815260200190815260200160002060060181905550611cae60065461161f565b60065490506001600660008282540192505081905550949350505050565b60008060001b831415611cde57600080fd5b826000806004548152602001908152602001600020600001819055508160008060045481526020019081526020016000206001018190555033600080600454815260200190815260200160002060020160006101000a81548173ffffffffffffffffffffffffffffffffffffffff021916908373ffffffffffffffffffffffffffffffffffffffff1602179055506004549050600160046000828254019250508190555092915050565b60026020528060005260406000206000915090508060000154908060010154908060020154908060030160009054906101000a900460ff16908060030160019054906101000a900460ff1690806004015490806005015490806006015490508856fea265627a7a723158205437709413377aa5abd5dfd031e80865e7752d54ed26d01c40e773e3e572dab764736f6c634300050c0032",
  "source": "pragma solidity >=0.4.21 <0.6.0;\r\n\r\n\r\ncontract ticketingSystem {\r\n\r\n\t//_________________________________________________________________\r\n\t//_________________________STRUCTURES______________________________\r\n\r\n\tstruct Artist {\r\n\t\tbytes32 name;\r\n\t\tuint artistCategory;\r\n\t\taddress payable owner;\r\n\t\tuint totalTicketSold;\r\n\t}\r\n\t\r\n\tstruct Venue {\r\n\t\tbytes32 name;\r\n\t\tuint capacity;\r\n\t\tuint standardComission;\r\n\t\taddress payable owner;\r\n\t}\r\n\t\r\n\tstruct Concert {\r\n\t\tuint artistId;\r\n\t\tuint concertDate;\r\n\t\tuint venueId;\r\n\t\tbool validatedByArtist;\r\n\t\tbool validatedByVenue;\r\n\t\tuint totalSoldTicket;\r\n\t\tuint totalMoneyCollected;\r\n\t\tuint ticketPrice;\r\n\t}\r\n\t\r\n\tstruct Ticket {\r\n\t\tuint concertId;\r\n\t\tuint amountPaid;\r\n\t\tbool isAvailable;\r\n\t\taddress payable owner;\r\n\t\tbool isAvailableForSale;\r\n\t\tuint numTicket;   \r\n\t\tuint salePrice;\r\n\t}\r\n\t\r\n\t//__________________________________________________________________\r\n\t//_________________________MAPPINGS_________________________________\r\n\t\r\n\tmapping(uint => Artist) public artistsRegister;\r\n\tmapping(uint => Venue) public venuesRegister;\r\n\tmapping(uint => Concert) public concertsRegister;\r\n\tmapping(uint => Ticket) public ticketsRegister;\r\n\t\r\n\t//__________________________________________________________________\r\n\t//_________________________DECLARATION______________________________\r\n\t\r\n\tuint public nextIdArtist;\r\n\tuint public nextIdVenue;\r\n\tuint public nextIdConcert;\r\n\tuint public nextIdTicket;\r\n\t\r\n\tconstructor() public {\r\n\t\tnextIdArtist = 1;\r\n\t\tnextIdVenue = 1;\r\n\t\tnextIdConcert = 1;\r\n\t\tnextIdTicket = 1;\r\n\t}\r\n\t\r\n\t//___________________________________________________________________\r\n\t//_________________________FUNCTIONS CREATE__________________________\r\n\t\r\n\t\r\n\tfunction createArtist(bytes32 _name, uint _artistCategory) public returns(uint numArtist) {\r\n\t// Create function to create an artist profile\r\n\t\r\n\t\trequire(_name != 0x0);\r\n\t\t//0x0 est une abrviation pour l'adresse de la gense 0x(40 zros). \r\n\t\t//0x0 un trou noir d'une adresse. Les fonds thers entrent, mais aucun ne sort.\r\n\t\t//require quivalent  un if\t\t\r\n\t\t//recommand dutiliser require en dbut de fonction, notamment pour tous les tests sur les variables entres par les utilisateurs.\r\n\t\t\r\n\t\tartistsRegister[nextIdArtist].name = _name;\r\n\t\tartistsRegister[nextIdArtist].artistCategory = _artistCategory;\r\n\t\tartistsRegister[nextIdArtist].owner = msg.sender;\r\n\t\t// msg.sender est la personne qui se connecte actuellement au contrat\r\n\t\t\r\n\t\tnumArtist = nextIdArtist;\r\n\t\tnextIdArtist +=1; \r\n\t}\r\n\t\r\n\tfunction createVenue(bytes32 _name, uint _capacity, uint _standardComission) public returns(uint numVenue) {\r\n\t//Create function to create a venue profile\r\n\t\r\n\t\trequire(_name != 0x0); \r\n\t\tvenuesRegister[nextIdVenue].name = _name;\r\n\t\tvenuesRegister[nextIdVenue].capacity = _capacity;\r\n\t\tvenuesRegister[nextIdVenue].standardComission= _standardComission;\r\n\t\tvenuesRegister[nextIdVenue].owner = msg.sender;\r\n\t\tnumVenue = nextIdVenue;\r\n\t\tnextIdVenue +=1;\r\n\t}\r\n\t\r\n\tfunction createConcert(uint _artistId, uint _venueId, uint _concertDate, uint _ticketPrice) public returns(uint numConcert) {\r\n\t\trequire(artistsRegister[_artistId].owner != address(0));                //////////////////\r\n\t\trequire(venuesRegister[_venueId].owner != address(0));                  //////////////////\r\n\t\trequire(_concertDate >= now);\r\n\t\t// now = horodatage du bloc actuel (alias pour block.timestamp)\r\n\t\t\r\n\t\tconcertsRegister[nextIdConcert].artistId = _artistId;\r\n\t\tconcertsRegister[nextIdConcert].venueId = _venueId;\r\n\t\tconcertsRegister[nextIdConcert].concertDate = _concertDate;\r\n\t\tconcertsRegister[nextIdConcert].ticketPrice = _ticketPrice;\r\n\t\tvalidateConcert(nextIdConcert);\r\n\t\tnumConcert = nextIdConcert;\r\n\t\tnextIdConcert +=1;\r\n\t}\r\n\t\r\n\tfunction emitTicket(uint _concertId, address payable _ticketOwner) public returns(uint numTicket) {\r\n\t//Create function to emit tickets\r\n\t\r\n\t\trequire(artistsRegister[concertsRegister[_concertId].artistId].owner == msg.sender);    ///////////////////\r\n\t\t//Artists can emit tickets that they own\r\n\t\t\r\n\t\trequire(venuesRegister[concertsRegister[_concertId].venueId].capacity >= concertsRegister[_concertId].totalSoldTicket);    ////////////////\r\n\t\trequire(concertsRegister[_concertId].concertDate >= now);\r\n\t\t\r\n\t\tticketsRegister[nextIdTicket].concertId = _concertId;\r\n\t\tticketsRegister[nextIdTicket].owner = _ticketOwner;\r\n\t\tconcertsRegister[_concertId].totalSoldTicket += 1;\r\n\t\tticketsRegister[nextIdTicket].numTicket = concertsRegister[_concertId].totalSoldTicket;\r\n\t\tticketsRegister[nextIdTicket].isAvailable = true;\r\n\t\tnumTicket = nextIdTicket;\r\n\t\tnextIdTicket +=1;\t\r\n\t}\r\n\t\r\n\t//___________________________________________________________________\r\n\t//_________________________FUNCTIONS MODIFY__________________________\r\n\t\t\r\n\tfunction modifyArtist(uint _artistId, bytes32 _name, uint _artistCategory, address payable _newOwner) public {\r\n\t// Create function to modify an artist profile\r\n\t\r\n\t\trequire(_name != 0x0);\r\n\t\trequire(artistsRegister[_artistId].owner == msg.sender);\r\n\t\tartistsRegister[_artistId].name = _name;\r\n\t\tartistsRegister[_artistId].artistCategory = _artistCategory;\r\n\t\tartistsRegister[_artistId].owner = _newOwner;\t\r\n\t}\r\n\t\r\n\tfunction modifyVenue(uint _venueId, bytes32 _name, uint _capacity, uint _standardComission, address payable _newOwner) public {\r\n\t// Create function to modify a venue profile\r\n\t\r\n\t\trequire(_name != 0x0);\r\n\t\trequire(venuesRegister[_venueId].owner == msg.sender);\r\n\t\tvenuesRegister[_venueId].name = _name;\r\n\t\tvenuesRegister[_venueId].capacity = _capacity;\r\n\t\tvenuesRegister[_venueId].standardComission = _standardComission;\r\n\t\tvenuesRegister[_venueId].owner = _newOwner;\r\n\t}\r\n\t\r\n\t//___________________________________________________________________\r\n\t//___________________FUNCTIONS RELATED TO CONCERT____________________\r\n\t\r\n\tfunction validateConcert(uint _concertId) public {\r\n\t// Before happening, a concert needs to be validated/confirmed by the artist and the venue\r\n\t\r\n\t\trequire(concertsRegister[_concertId].concertDate >= now);\r\n\t\tif(artistsRegister[concertsRegister[_concertId].artistId].owner == msg.sender){\r\n\t\t\tconcertsRegister[_concertId].validatedByArtist = true; }\r\n\t\tif(venuesRegister[concertsRegister[_concertId].venueId].owner == msg.sender){\r\n\t\t\tconcertsRegister[_concertId].validatedByVenue = true; }\r\n\t}\r\n\t\t\r\n\t//___________________________________________________________________\r\n\t//___________________FUNCTIONS RELATED TO TICKET_____________________\r\n\t\r\n\tfunction useTicket(uint _ticketId) public {\r\n\t//Create function to use tickets\r\n\t\r\n\t\trequire(ticketsRegister[_ticketId].owner == msg.sender);               ////////////////////\r\n\t\trequire(concertsRegister[ticketsRegister[_ticketId].concertId].concertDate > now);\r\n\t\trequire(concertsRegister[ticketsRegister[_ticketId].concertId].concertDate < now + 86400); \r\n\t\t// Ticket owner can use tickets in the 24h before the concert\r\n\t\t// Attention : Exprimer le temps en secondes \r\n\t\t// now + 1jour ; 1jour = 60sec * 60min * 24h = 86400sec\r\n\t\t\r\n\t\trequire(concertsRegister[ticketsRegister[_ticketId].concertId].validatedByArtist);\r\n\t\trequire(concertsRegister[ticketsRegister[_ticketId].concertId].validatedByVenue);\r\n\t\t\r\n\t\tdelete ticketsRegister[_ticketId];              ////////////////\r\n\t}\r\n\t\r\n\tfunction buyTicket(uint _concertId) public payable returns(uint numTicket) {\r\n\t//Create function to buy tickets\r\n\t\r\n\t\trequire(concertsRegister[_concertId].artistId != 0);       /////////////////\r\n\t\trequire(venuesRegister[concertsRegister[_concertId].venueId].capacity >= concertsRegister[_concertId].totalSoldTicket);      ///////////////////\r\n\t\trequire(concertsRegister[_concertId].concertDate > now);\r\n\t\trequire(concertsRegister[_concertId].ticketPrice == msg.value);     ////////////////\r\n\t\t// msg.value contient la quantit de wei (ether / 1e18) envoye dans la transaction.\r\n\t\t\r\n\t\tticketsRegister[nextIdTicket].concertId = _concertId;\r\n\t\tticketsRegister[nextIdTicket].owner = msg.sender;\r\n\t\tconcertsRegister[_concertId].totalSoldTicket += 1;\r\n\t\tticketsRegister[nextIdTicket].numTicket = concertsRegister[_concertId].totalSoldTicket;    ///////////////////\r\n\t\tticketsRegister[nextIdTicket].isAvailable = true;\r\n\t\tconcertsRegister[_concertId].totalMoneyCollected += msg.value;\r\n\t\tticketsRegister[_concertId].amountPaid = msg.value;\r\n\t\tnumTicket = nextIdTicket;\r\n\t\tnextIdTicket +=1;\t\r\n\t}\r\n\r\n\tfunction transferTicket(uint _ticketId, address payable _newOwner) public {\r\n\t//Create function to transfer tickets\r\n\t\r\n\t\trequire(ticketsRegister[_ticketId].owner == msg.sender);       ///////////////////\r\n\t\trequire(concertsRegister[ticketsRegister[_ticketId].concertId].concertDate > now);\r\n\t\tticketsRegister[_ticketId].owner = _newOwner;\r\n\t}\r\n\t\t\r\n\tfunction cashOutConcert(uint _concertId, address payable _addressForCashOut) public {\r\n\t// Create a function for the artist to cash out after the concert\r\n\t\r\n\t\trequire(concertsRegister[_concertId].concertDate < now);\r\n\t\t//Make sure the concert has passed\r\n\t\t\r\n\t\trequire(artistsRegister[concertsRegister[_concertId].artistId].owner == msg.sender);    ///////////////\r\n\t\trequire(concertsRegister[_concertId].totalMoneyCollected > 0);      //////////////\r\n\t\t\r\n\t\t//Split the money between artist and venue\r\n\t\t\r\n\t\tuint finalAmountVenue = concertsRegister[_concertId].totalMoneyCollected*venuesRegister[concertsRegister[_concertId].venueId].standardComission/10000;\r\n\t\t// Montant final peru par le lieu = total de l'argent gagn grce au concert * le prix de la commision du lieu/10000\r\n\t\t// Attention : La commission est enregistre en pourcentage avec 2 dcimales (05_ConcertCashOut) => /10000\r\n\t\t\r\n\t\tuint finalAmountArtist = concertsRegister[_concertId].totalMoneyCollected - finalAmountVenue;\r\n\t\t// Montant final peru par l'artiste = total de l'argent gagn grce au concert - le montant final pay pour le lieu \r\n\t\t\r\n\t\tconcertsRegister[_concertId].totalMoneyCollected = 0;\r\n\t\t// On remet le compteur de l'argent gagn grce au concert  0.\r\n\t\t\r\n\t\t_addressForCashOut.transfer(finalAmountArtist);            //////////////////\r\n\t\tvenuesRegister[concertsRegister[_concertId].venueId].owner.transfer(finalAmountVenue);    ///////////////////\r\n\r\n\t\tartistsRegister[concertsRegister[_concertId].artistId].totalTicketSold += concertsRegister[_concertId].totalSoldTicket;    ////////////////\r\n\r\n\t\tdelete concertsRegister[_concertId];     //////////////\r\n\t}\r\n\r\n\tfunction offerTicketForSale(uint _ticketId, uint _salePrice) public {\r\n\t// Create a function to safely trade ticket for money \r\n\t\r\n\t\trequire(ticketsRegister[_ticketId].owner == msg.sender);     /////////////////\r\n\t\trequire(concertsRegister[ticketsRegister[_ticketId].concertId].concertDate > now);\r\n\t\trequire(ticketsRegister[_ticketId].isAvailable);\r\n\t\trequire(concertsRegister[ticketsRegister[_ticketId].concertId].ticketPrice > _salePrice);\r\n\t\t// Forbid selling the ticket for more than it was bought\r\n\t\t\t\r\n\t\tticketsRegister[_ticketId].salePrice = _salePrice;\r\n\t\tticketsRegister[_ticketId].isAvailableForSale = true;\r\n\t}\r\n\t\r\n\tfunction buySecondHandTicket(uint _ticketId) public payable {\r\n\t//Create a function to redeem distributed tickets\r\n\t\trequire(concertsRegister[ticketsRegister[_ticketId].concertId].concertDate > now);\r\n\t\trequire(ticketsRegister[_ticketId].isAvailableForSale);\r\n\t\trequire(ticketsRegister[_ticketId].salePrice == msg.value);   /////////////////\r\n\t\t\r\n\t\tticketsRegister[_ticketId].isAvailableForSale = false;\r\n\t\t//Tickets can be created but not sold\r\n\t\t\r\n\t\tticketsRegister[_ticketId].owner.transfer(msg.value);     ////////////////////\r\n\t\t//Users must be able to redeem their tickets with a chain of characters\r\n\t\t\r\n\t\tticketsRegister[_ticketId].owner = msg.sender;\r\n\t}\r\n\t\r\n\t\r\n\t\r\n\r\n\r\n}",
  "sourcePath": "D:/5_ESILV/Monnaies numriques/Ethereum_TD5/TD5_Ethereum_AngelineTexier/truffle-testing-master/contracts/ticketingSystem.sol",
  "compiler": {
    "name": "solc",
    "version": "0.5.12+commit.7709ece9.Emscripten.clang"
  },
  "schemaVersion": "3.0.19",
  "updatedAt": "2020-01-07T17:27:02.810Z",
  "devdoc": {
    "methods": {}
  },
  "userdoc": {
    "methods": {}
  }
}